:10000000C8C20000F7C20000F5C20000F3C2000041
:10001000F1C20000EFC20000EDC20000EBC2000020
:10002000E9C20000E7C20000E5C20000E3C2000030
:100030000C946613DFC20000DDC20000DBC20000CA
:10004000D9C20000D7C20000D5C20000D3C2000050
:10005000D1C20000CFC20000CDC200000C945009F4
:10006000C9C200000C941A090C94F108C3C2000024
:10007000C1C20000BFC20000BDC20000BBC2000080
:10008000B9C20000B7C20000B5C20000B3C2000090
:10009000B1C20000AFC20000ADC20000ABC20000A0
:1000A000A9C20000A7C20000A5C20000A3C20000B0
:1000B000A1C200009FC200009DC200009BC20000C0
:1000C00099C2000097C2000095C2000093C20000D0
:1000D00091C200008FC200008DC200008BC20000E0
:1000E00089C2000000000A0B02090C0D0E0807036C
:1000F00004010000000000000000000000000000FB
:1001000000000000000000000000000000000000EF
:1001100012111000000000000000000000000000AC
:100120000000000000000000000000002200250088
:1001300028002B002E0031003400020100000501D0
:1001400008010B0100002100240027002A002D00D7
:100150003000330001010000040107010A01050518
:100160000505070508080808020202020A0A08082D
:10017000040404040101010101010101030303035B
:1001800003030303040707070C0C0C0C0C0C0C0CEA
:100190000202020206060606060606060B0B0B0BFB
:1001A0000B0B0B0B01021020200808102040102020
:1001B000408002010201080402010102040810202B
:1001C0004080804020100804020180040201804029
:1001D0002010080402010804020101020408102092
:1001E00040800102040810204080CF93DF9300D0AC
:1001F00000D000D01F92CDB7DEB7E0913403F0916C
:100200003503F08010E000E0FF2029F00580F68142
:10021000E02D008111810E94D7090E94CD096C0157
:1002200080918A0290918B02C816D90608F07EC090
:100230000E949B0ED0928B02C0928A020E946F0C89
:1002400000914F03109150031A86198680E06801CF
:10025000B1E1CB0ED11C0FB6F8940F92F801F28CDD
:10026000FF2009F419C1448D4423C1F050E0868178
:100270009781840F951F9783868324813581821708
:10028000930720F08081918197838683D801169609
:100290006D917C91CE0101960E941C18FA94F80190
:1002A000F28E8085882339F0C80108960E942C0AB6
:1002B00081110E94A90B0F900FBED980D7FCC0CF2F
:1002C0000C811D81D8011A968D919C91892B21F06A
:1002D000C80102960E94080A0E94CD097C01809103
:1002E0008A0290918B02E816F90610F40E949B0E88
:1002F000F0928B02E0928A02B9E0BD1508F4A0CF1B
:10030000ED2DDD0CFF0BD80152969C918827E45708
:10031000FE4F8F4F0C9414180F020F020F0247026A
:10032000320241020F020F0247023202D0928B02C8
:10033000C0928A02FF2099F1C016D106C0F10E9436
:100340006F0CE0913403F09135030580F681E02DC8
:10035000E680F780C70102960E94080AD7015296EC
:100360008C91529782FF17C01C966D917C91600F03
:10037000711F9801A601C7010E94DE0A882321F09F
:10038000B801C7010E94750ED7015096ED91FC91FE
:10039000C701199555CF8E7FF701828BF5CFE0917C
:1003A0003203F09133038081BB24B3948111B12CCB
:1003B000E0904F03F09050030FB6F8940F92F701BE
:1003C000858D8F3F09F4158ED7015E968C915E97CF
:1003D0008F3F11F45E961C920F900FBEF701828D35
:1003E000811113C06091820270918302645F7F4F1C
:1003F000C7014196EDD7C8018C199D09BB2011F0AA
:100400008FEF9FEF6B2D0E94070BC7010E94680AB8
:100410000E946F0C811114CF0E94A90B11CF916023
:10042000F801928BCA80DB80648575856C0D7D1D1B
:100430009601A701C8010E94DE0A882309F400CFB3
:10044000D8015096ED91FC91C8011995F801828967
:1004500082FFF6CE648575856C0D7D1DC8010E94F6
:10046000750EEECE9160F801928B6A817B81758763
:1004700064876E0D7F1D9701A701C8010E94DE0AE7
:10048000DFCE91FD04C0C8010E943812D9CE9E7FF4
:10049000D80152969C93D4CE29853A85232B19F402
:1004A0000F900FBEAACE811109C0809187038E8361
:1004B000809185039091860398878F830F900FBE5C
:1004C00076D70FB6F8940F92D8015D968C915D9710
:1004D0008F3F11F45D961C92F801868D8F3F09F4D1
:1004E000168E0F900FBEBE01675F7F4FCE0106963E
:1004F00021D7811118C0C80160D7882379F0698598
:100500007A85C6010E945E0BC801E2D70E946F0C7B
:10051000811102C00E94A90B81E09DCEC801D8D7ED
:100520000E946F0CF9CFC801D3D70E946F0CC8018D
:1005300044D7882389F361CE80918602811108C057
:1005400080918803823010F00E94A90B8ED1F4CFE5
:100550000FB6F8940F92E0916303F0916403C681A3
:10056000D781CE01029654D7809184038150809325
:100570008403809186028150809386020F900FBE83
:100580008F89988D0E943812CE010E943812D4CFE4
:10059000861411241FBECFEFD1E2DEBFCDBF00E035
:1005A0000CBF12E0A0E0B2E0ECE5F0E300E00BBF2E
:1005B00002C007900D92A238B107D9F723E0A2E854
:1005C000B2E001C01D92A13BB207E1F712E0C9EC15
:1005D000D2E000E006C021970109802FFE010E94B1
:1005E0001418C83CD10780E00807A9F70E946813D7
:1005F0000C942C1805CD90E0FC01EC55FE4F249195
:10060000825A9E4FFC018491882399F090E0880FD4
:10061000991FFC01EC5BFE4FA591B491FC01E65DD6
:10062000FE4F859194918FB7F894EC91E22BEC9367
:100630008FBF089580917B00877F80937B0080919E
:10064000000220E4829FC001112480937C008091ED
:100650007A00806480937A0080917A0086FDFCCFD6
:1006600080917800909179000895AF92BF92CF92D7
:10067000DF92EF92FF920F931F93CF93DF936C0162
:100680007B018B01040F151FEB015E01AE18BF0843
:10069000C017D10759F06991D601ED91FC910190F5
:1006A000F081E02DC6011995892B79F7C501DF91FD
:1006B000CF911F910F91FF90EF90DF90CF90BF905F
:1006C000AF900895FC01538D448D252F30E0842F89
:1006D00090E0821B930B541710F0CF96089501976A
:1006E0000895FC01918D828D981761F0A28DAE0F57
:1006F000BF2FB11D5D968C91928D9F5F9F73928FDE
:1007000090E008958FEF9FEF0895FC01918D828D09
:10071000981731F0828DE80FF11D858D90E00895D6
:100720008FEF9FEF0895FC01918D228D892F90E02E
:10073000805C9F4F821B91098F739927089585E9EB
:1007400092E0F1DF21E0892B09F420E0822F089567
:10075000FC01A48DA80FB92FB11DA35ABF4F2C9136
:10076000848D90E001968F739927848FA689B7892D
:100770002C93A089B1898C91837080648C93938D24
:10078000848D981306C00288F389E02D80818F7DC7
:1007900080830895EF92FF920F931F93CF93DF937F
:1007A000EC0181E0888F9B8D8C8D98131AC0E889AD
:1007B000F989808185FF15C09FB7F894EE89FF897C
:1007C0006083E889F98980818370806480839FBF1A
:1007D00081E090E0DF91CF911F910F91FF90EF901A
:1007E0000895F62E0B8D10E00F5F1F4F0F7311272A
:1007F000E02E8C8D8E110BC00FB607FCFACFE88966
:10080000F989808185FFF5CFCE01A2DFF2CFEB8D94
:10081000EC0FFD2FF11DE35AFF4FF0829FB7F894C4
:100820000B8FEA89FB8980818062D0CFCF93DF93E1
:10083000EC01888D8823B1F0AA89BB89E889F98900
:100840008C9185FD03C0808186FD0CC00FB607FC2E
:10085000F7CF8C9185FFF2CF808185FFEDCFCE0160
:1008600077DFEACFDF91CF91089580E090E0892B88
:1008700021F065DF81110E94000080E090E0892B6B
:1008800049F080E090E0892B29F00E94000081115E
:100890000E94000080E090E0892B49F080E090E029
:1008A000892B29F00E94000081110E94000080E045
:1008B00090E0892B49F080E090E0892B29F00E949C
:1008C000000081110C9400000895282F30E0F901F8
:1008D000EC51FF4F9491F901EC55FE4F4491225A8F
:1008E0003E4FF9012491222309F435C0992311F1D7
:1008F00091509231F8F4E92FF0E08827ED57FB4F43
:100900008F4F0C941418B404B8049504AC04B004CC
:100910009A04BB04C104C504CB04CF04D304D90496
:10092000DD049A04E104E704EB04809180008F77F2
:1009300080938000E22FF0E0EE0FFF1FE65DFE4F98
:10094000A591B4918FB7F894EC91611148C040958E
:100950004E234C938FBF0895809180008F7DE8CF08
:1009600080918000877FE4CF84B58F7784BDE2CF0C
:1009700084B58F7DFBCF8091B0008F778093B000DE
:10098000D9CF8091B0008F7DF9CF809190008F7783
:1009900080939000CFCF809190008F7DF9CF809190
:1009A0009000877FF5CF8091A0008F778093A00083
:1009B000C1CF8091A0008F7DF9CF8091A000877F6B
:1009C000F5CF809120018F7780932001B3CF809164
:1009D00020018F7DF9CF80912001877FF5CF4E2BAD
:1009E000B8CF089590E080E00895E0915303F0912E
:1009F00054038081811107C08FEF9FEF90934B03C9
:100A000080934A030895E0915303F09154030580C5
:100A1000F681E02D0680F781E02D82819381EECF73
:100A2000CF93DF93EC0160E08E814FDF61E08E8138
:100A30004CDF60E08E8149DF8BE891E00197F1F7B0
:100A4000DF91CF910895CF92DF92EF92FF920F93B3
:100A50001F93CF93DF936C017C0187E0E80EF11CBC
:100A6000D0E0C0E0062F10E0B8010C2E02C0759552
:100A700067950A94E2F76170F70181917F0125DFA4
:100A80002196C430D10581F7C601DF91CF911F9126
:100A90000F91FF90EF90DF90CF90C2CFCF92DF9277
:100AA000EF92FF920F931F93CF93DF93EC01F62EFB
:100AB000642F8C810ADF8D818F3F11F060E005DFAC
:100AC0000F2D10E08F8584FF23C06E0187E0C80ED4
:100AD000D11CF12CE12CB8010E2C02C07595679544
:100AE0000A94E2F76170F60181916F01EEDEFFEF8B
:100AF000EF1AFF0A88E0E816F10469F7CE01DF91EA
:100B0000CF911F910F91FF90EF90DF90CF9088CF02
:100B1000B80184E0759567958A95E1F7CE0193DF7A
:100B20006F2DCE01DF91CF911F910F91FF90EF902C
:100B3000DF90CF9088CF0F931F93CF93DF93EC017B
:100B4000623019F48F8588608F876B8B1C8A80E4F4
:100B50008D8B80E18E8B80E58F8B8C814CDD8D8140
:100B60008F3F09F048DD8E8146DD8E0198012C1BF8
:100B70003D0B8F8584FD0BC084E090E00F5F1F4F1D
:100B8000281739073CF4F801868135DDEFCF88E07E
:100B900090E0F4CF8BE39DE00197F1F760E08C816A
:100BA00094DE60E08E8191DE8D818F3F11F060E0F8
:100BB0008CDE6F8564FD35C063E0CE0144DF0BE45D
:100BC00016E4C8010197F1F763E0CE013CDFC801EC
:100BD0000197F1F763E0CE0136DF83E592E00197FC
:100BE000F1F762E0CE012FDF6F85606240E0CE0159
:100BF00055DF84E0888B40E06CE0CE014FDF40E0C1
:100C000061E0CE014BDF8BE39FE10197F1F782E0DA
:100C1000898B40E066E0CE01DF91CF911F910F916B
:100C20003DCF606240E0CE0139DF8BE496E401976E
:100C3000F1F76F85606240E0CE0130DF83E592E03E
:100C40000197F1F76F85606240E0CE0127DFCCCFDE
:100C500041E024DF81E090E00895FB010190002055
:100C6000E9F73197AF01461B570BDC01ED91FC9181
:100C70000280F381E02D19948F929F92AF92BF92E0
:100C8000EF92FF920F931F93CF93DF93CDB7DEB711
:100C9000A1970FB6F894DEBF0FBECDBF7C01FA015D
:100CA000CB0119A2223008F42AE08E010F5D1F4FFC
:100CB000822E912CB12CA12CBF01A50194010E9480
:100CC000F217F901CA016A3004F5605DD8016E932C
:100CD0008D01232B242B252B79F790E080E01097B2
:100CE00019F0BD01C701B9DFA1960FB6F894DEBFB8
:100CF0000FBECDBFDF91CF911F910F91FF90EF906D
:100D0000BF90AF909F908F900895695CDFCF2F9236
:100D10003F924F925F926F927F928F929F92AF928B
:100D2000BF92CF92DF92EF92FF921F93CF93DF9308
:100D3000EC016A017B01722EAB019601CB01B60179
:100D40000E94EE1765E272E0811126C0460157014C
:100D5000E894B7F82FEF3FEF4FE75FE7C501B40125
:100D60000E94EE1781110CC02FEF3FEF4FE75FE7B6
:100D7000C501B4010E943D1669E272E0181664F0E4
:100D80002FEF3FEF4FE75FE4C701B6010E948717DF
:100D90001816ACF46DE272E0CE01DF91CF911F9195
:100DA000FF90EF90DF90CF90BF90AF909F908F908B
:100DB0007F906F905F904F903F902F904ECF2FEF8E
:100DC0003FEF4FE75FECC701B6010E943D1687FD7C
:100DD000E1CF20E030E0A901C701B6010E943D1635
:100DE000312C212C87FF0DC0E881F9810190F08121
:100DF000E02D6DE2CE0119951C01F7FAF094F7F899
:100E0000F09410E060E070E080E09FE3711641F044
:100E100020E030E040E251E40E9441161F5FF6CF2F
:100E2000A70196010E94D9152B013C010E94A91629
:100E30004B015C012AE0BC01A401CE011DDF7C0155
:100E4000E20CF31C1123D9F1C501B4010E94D5169F
:100E50009B01AC01C301B2010E94D8154B015C019A
:100E6000E881F9810190F081E02D6EE2CE011995C3
:100E7000E80EF91E115018F120E030E040E251E494
:100E8000C501B4010E948B172B013C010E94A916D9
:100E90004B01B12CA12C2AE0B501A401CE01ECDE5E
:100EA000E80EF91EC501B4010E94D5169B01AC01E4
:100EB000C301B2010E94D8154B015C01DBCFC70111
:100EC000DF91CF911F91FF90EF90DF90CF90BF9077
:100ED000AF909F908F907F906F905F904F903F90DA
:100EE0002F900895CF93DF93CDB7DEB768970FB6F5
:100EF000F894DEBF0FBECDBF8BE0E82E82E0F82E67
:100F00009AE0D92ECC24CA9429E0B22E37E0A32E41
:100F100046E0942E55E0852E64E0362E61E088E0B0
:100F2000D4DC88DB8C0180918402909185024DD7BE
:100F3000813009F053C0B801110F880B990B0E9442
:100F4000D71620E030E040E85AE30E948B172DECE2
:100F50003CEC4CE85FE30E948B172B013C0161E302
:100F600072E085E992E079DE22E0B301A20185E931
:100F700092E0CDDE68E372E085E992E06EDE6BE33D
:100F800072E085E992E069DE1C821B82FA82E982C6
:100F9000DD82CE82BF82A88699868A863B861C86A1
:100FA0001D861E861F86188A61E0CE010196C3DD6C
:100FB00062E0CE010196BFDD6EE372E0CE010196E4
:100FC0004CDE22E0B301A201CE010196A0DE70E06A
:100FD00060E08091840290918502A9D59ED59ECF34
:100FE000CF93DF93CDB7DEB768970FB6F894DEBF27
:100FF0000FBECDBF8BE0E82E82E0F82E9AE0D92E0E
:10100000CC24CA9429E0B22E37E0A32E46E0942ED9
:1010100055E0852E64E0362E60E088E056DC0ADB81
:101020008C018091840290918502CFD6813009F0A5
:1010300059C0B801110F880B990B0E94D71620E0F8
:1010400030E040E85AE30E948B1720E030E048ECA3
:1010500052E40E948B172DEC3CEC4CE85FE30E94BD
:101060008B172B013C0163E472E085E992E0F5DD2A
:1010700022E0B301A20185E992E049DE61E572E078
:1010800085E992E0EADD6BE372E085E992E0E5DD77
:101090001C821B82FA82E982DD82CE82BF82A88610
:1010A00099868A863B861C861D861E861F86188A20
:1010B00061E0CE0101963FDD62E0CE0101963BDDAD
:1010C00064E572E0CE010196C8DD22E0B301A20121
:1010D000CE0101961CDE70E060E080918402909168
:1010E000850225D51AD598CF0F931F93CF93DF9301
:1010F00088E081DA82E080930002E091A502F0911D
:10110000A6028083E091A102F091A2021082E091F8
:10111000A302F091A4028FEC80831092AD02E091C3
:10112000A902F091AA0286E08083E091A702F091E3
:10113000A802808180618083E091A702F091A802DB
:10114000808188608083E091A702F091A80280816D
:1011500080688083E091A702F091A80280818F7D52
:1011600080838091840290918502892B09F58FE11B
:1011700090E00E944712EC01009781F099838883E8
:1011800081E08B8F1C8ECE01B6D21D821C8219820B
:1011900018821E8270E060E0CE01C9D4D09385022F
:1011A000C0938402209721F070E060E0CE01BFD4AC
:1011B00010E000E022E040E850E06AE572E080EFF5
:1011C00097E00E94631221E040E052E067E672E09F
:1011D00082E797E00E946312DF91CF911F910F91F8
:1011E00008951F920F920FB60F9211240BB60F9213
:1011F0002F933F934F935F936F937F938F939F931F
:10120000AF93BF93EF93FF9385E992E0A1DAFF914B
:10121000EF91BF91AF919F918F917F916F915F916E
:101220004F913F912F910F900BBE0F900FBE0F90DB
:101230001F9018951F920F920FB60F9211240BB6A4
:101240000F922F938F939F93EF93FF93E091A502BB
:10125000F091A6028081E091AB02F091AC0282FD98
:101260001DC090818091AE028F5F8F732091AF027D
:10127000821741F0E091AE02F0E0EB56FD4F958F02
:101280008093AE02FF91EF919F918F912F910F90DC
:101290000BBE0F900FBE0F901F9018958081F2CF5C
:1012A0001F920F920FB60F9211242F933F938F939B
:1012B0009F93AF93BF938091910290919202A091DE
:1012C0009302B09194023091900223E0230F2D37C6
:1012D00058F50196A11DB11D2093900280939102B3
:1012E00090939202A0939302B093940280918C0207
:1012F00090918D02A0918E02B0918F020196A11D56
:10130000B11D80938C0290938D02A0938E02B093B6
:101310008F02BF91AF919F918F913F912F910F902D
:101320000FBE0F901F90189526E8230F0296A11D5F
:10133000B11DD2CFFC01DB010FB6F8940F924091A2
:101340008503509186032D913C9111972F3F3207D1
:10135000E1F081819281609187037081761719F0A5
:1013600048175907C0F4481B590B4217530788F414
:10137000241B350B2D933C938091870380838091B0
:101380008503909186039283818380E00F900FBE46
:1013900008951D921C9281E0F9CF0FB6F8940F9238
:1013A00080918503909186030F900FBE08958091E0
:1013B0004E038F5F80934E0308950FB6F8940F92FB
:1013C000FC01928D0F900FBE81E0911180E0089595
:1013D000CF93DF939C01FB01DC011196CD91DC9151
:1013E000D383C2838C819D81958384838C819D81ED
:1013F000DC0113967C936E9312977D836C83318707
:101400002087F90180818F5F8083DF91CF910895DC
:10141000CF93DF93FC01A085B185828193812481E4
:101420003581EC013D832C83C481D5819B838A83E4
:1014300011968D919C9112978E179F0721F4129609
:10144000DC93CE931197118610868C9181508C93EA
:101450008C91DF91CF9108950F931F93CF93DF93DA
:10146000DC011596ED91FC91C681D7818E01045F58
:101470001F4FC801CDDF80914E03811123C00A5058
:101480001109C801C5DF8E899091AC03981710F43B
:101490008093AC03B9E08B9FC0011124B801885739
:1014A0009C4F96DFE0918202F09183029E898689AB
:1014B000891760F481E080938902DF91CF911F91B9
:1014C0000F910895B80187E693E0EBCF80E0F5CF68
:1014D000EF92FF920F931F93CF93DF93EC010FB620
:1014E000F8940F921E8D7C0181E1E80EF11C01E061
:1014F0001116D4F08FEF8E8F0F900FBE0FB6F894A9
:101500000F921D8D7E0188E0E80EF11C01E011169E
:10151000ACF08FEF8D8F0F900FBEDF91CF911F91A9
:101520000F91FF90EF9008958989882319F3C701DF
:1015300093DF8111009389021150DACF88858823C7
:1015400041F3C70189DF8111009389021150DFCF78
:101550000F931F93CF93DF938C01FB0180819181C7
:10156000D80113968F3F9807F1F4E801AF81B88551
:1015700012968D919C91139793838283EC01FD8346
:10158000EC83B583A4831396FC93EE931297118793
:101590000087F80180818F5F8083DF91CF911F9159
:1015A0000F910895D90112962D913C911397E9015D
:1015B0004881598184179507A8F7DACFFC01738316
:1015C0006283918780874617570788F0421B530B29
:1015D0008485958548175907C0F4BF016E5F7F4F1A
:1015E0008091320390913303B3DF80E00895421776
:1015F000530718F46217730740F4BF016E5F7F4F03
:101600008091340390913503EFCF81E00895FF92EC
:101610000F931F93CF93DF93EC01F62E0091850378
:101620001091860380918202909183020296F0DEEF
:10163000CF3FDC0781F4FF2071F06091820270914E
:1016400083026E5F7F4F85E593E0DF91CF911F911D
:101650000F91FF90BDCEC00FD11FE0918202F0919B
:101660008302D383C2836091820270918302C01788
:10167000D10760F480915103909152036E5F7F4FC8
:10168000DF91CF911F910F91FF9062CF8091530313
:10169000909154036E5F7F4F5BDF80914A0390917E
:1016A0004B03C817D90720F4D0934B03C0934A03C8
:1016B000DF91CF911F910F91FF900895CF93DF930A
:1016C000EB016091820270918302645F7F4F40DF83
:1016D00061E0CE01DF91CF919ACFFC010396928316
:1016E00081832FEF3FEF3483238396838583908715
:1016F000878310820895CF93DF93EC010FB6F8949F
:101700000F92888199812B8D4C8DBC01249F600D97
:10171000711D11247D836C831A8E9B838A832150D3
:10172000330B429FB001439F700D1124860F971F0A
:101730009F838E838FEF8D8F8E8FCE010896CDDFA6
:10174000CE014196CADF0F900FBE81E0DF91CF91AD
:1017500008950F920FB6F8940F920BB60F920CB635
:101760000F921F9211242F923F924F925F926F928D
:101770007F928F929F92AF92BF92CF92DF92EF9221
:10178000FF920F931F932F933F934F935F936F930A
:101790007F938F939F93AF93BF93CF93DF93EF93F9
:1017A000FF93A0918202B09183020DB60D920EB606
:1017B0000D9280914E03882321F081E0809389026D
:1017C0005FC010928902A0918202B0918302E091E1
:1017D0008202F09183022D913C918789908D82172E
:1017E0009307A8F0809182029091830280918202F7
:1017F00090918302279A2F9A2FEF87EA91E6215042
:1018000080409040E1F700C000001F9AF5CF209182
:10181000AC0389E001C02150422F50E0849FF001C9
:10182000859FF00D1124E857FC4F9081992399F37F
:10183000A181B28112960D90BC91A02DB283A1839B
:10184000289FC001112485579C4FA817B90729F478
:1018500012968D919C919283818389E0849FF001FF
:10186000859FF00D1124E857FC4F0180F281E02D97
:101870008681978190938302809382022093AC03A8
:10188000A0918202B0918302CD91CDBFDD91DEBFE8
:10189000FF91EF91DF91CF91BF91AF919F918F9188
:1018A0007F916F915F914F913F912F911F910F9178
:1018B000FF90EF90DF90CF90BF90AF909F908F9070
:1018C0007F906F905F904F903F902F901F900F9060
:1018D0000CBE0F900BBE0F900FBE0F9008957F921D
:1018E0008F929F92AF92BF92CF92DF92EF92FF9230
:1018F0000F931F93CF93DF930FB6F8940F928091BD
:101900004E03815080934E0380914E03882389F0CB
:1019100080E00F900FBEDF91CF911F910F91FF904C
:10192000EF90DF90CF90BF90AF909F908F907F907F
:10193000089580918403882359F3D0E0C0E029E022
:10194000F22EEE24E39426C0E0916C03F0916D0337
:10195000C681D781CE010C965BDD8E010E5F1F4FD5
:10196000C80156DD8E899091AC03981710F48093CE
:10197000AC038F9DC0011124B80188579C4F28DD0E
:10198000E0918202F09183029E898689981710F077
:10199000E0928902809167038111D6CFCD2B09F0A7
:1019A00024D8E0908702F0908802E114F10409F451
:1019B000ACC089E0A82E77247394CC24CA94DC2C84
:1019C00080914E0381118FC0C0918503D091860311
:1019D0002196D0938603C09385032097B9F4809114
:1019E000530390915403209151033091520330934B
:1019F0005403209353039093520380935103809197
:101A000087038F5F809387030E94F50480914A03C8
:101A100090914B03B12CC817D90708F058C0E0913A
:101A20008202F0918302E689AE9EF0011124E8570C
:101A3000FC4F8081823010F0BB24B39480918902E6
:101A4000811103C0BB2009F457C07092890254C0B1
:101A5000E0915303F09154030580F681E02D068157
:101A60001781D80112968D919C91C817D90728F437
:101A700090934B0380934A03D2CF4801B2E08B0E80
:101A8000911CC401C5DCF80184899589892B19F062
:101A9000C8010C96BDDCD80156968C919091AC0390
:101AA000981710F48093AC038A9DC0011124B401EF
:101AB00088579C4F8DDCE0918202F0918302D8011F
:101AC00056969C918689981710F0BB24B394E091A8
:101AD0005303F091540380818111BACFD0924B030C
:101AE000C0924A039CCF8091870290918802019610
:101AF0009093880280938702B1E0EB1AF10809F015
:101B00005FCF109288021092870280918902882309
:101B100009F4FECE1EDE81E0FCCE49DC60E084E10B
:101B200090E075DDDCDE811101C013CE0895AF9227
:101B3000BF92DF92EF92FF920F931F93CF93DF93A9
:101B400000D01F921F92CDB7DEB78C017B011D82A2
:101B50001C8280E0580128E0A20EB11C0FB6F89458
:101B60000F92F801228D938D291708F073C0D28C43
:101B7000448D411155C080819181892B11F080E005
:101B800009C0E480F580E114F10409F580E0F80172
:101B900015821482D394F801D28E9189992319F079
:101BA000C801419659DC8111D4DD0F900FBE81E050
:101BB0000F900F900F900F900F90DF91CF911F918A
:101BC0000F91FF90EF90DF90BF90AF900895F701D5
:101BD00082A1815082A3268991A12917B9F281118E
:101BE000D5CF5701F2E0AF0EB11CC50111DCF701F2
:101BF00081A1868B24E030E0281B310935872487BA
:101C00009091AC03981710F48093AC03F9E08F9F88
:101C1000C0011124B50188579C4FDADB81E0B7CFB2
:101C200050E0B701828193810E941C18F801848DD5
:101C300022813381820F932F911D9383828324818C
:101C400035818217930708F49ACF8081918193831D
:101C5000828395CF2C813D81232B21F40F900FBEE1
:101C600080E0A6CF811109C080918703898380918C
:101C70008503909186039B838A830F900FBE97DB29
:101C80000FB6F8940F92F801858D8F3F09F4158EE9
:101C9000F801868D8F3F09F4168E0F900FBEBE019E
:101CA0006C5F7F4FCE01019645DB81111AC00FB6E4
:101CB000F8940F92F801928D838D0F900FBE9813B8
:101CC0000CC06C817D81C501F9DCC80101DC07DE37
:101CD000811101C03EDD81E041CFC801F9DBFFDDAC
:101CE000FACFC801F5DBFBDDBBCFCF93DF9300D08C
:101CF0001F921F92CDB7DEB79C0180914F03909148
:101D000050030097B1F019827B836A833D832C8353
:101D100020918303BE016F5F7F4F211120914E03FD
:101D200006DF0F900F900F900F900F90DF91CF91E3
:101D3000089580E0F6CFEF92FF920F931F93CF9319
:101D4000DF93E0913403F09135038081811113C05A
:101D50008091320390913303909335038093340341
:101D6000F0933303E0933203DF91CF911F910F91F2
:101D7000FF90EF9008950580F681E02D008111819C
:101D8000C681D7817E0182E0E80EF11CC70140DBED
:101D9000E889F989CE0119958A8982FFD2CF8C858D
:101DA0009D85800F911F0817190758F49B838A831C
:101DB000D987C887B7018091340390913503C8DB78
:101DC000C0CFB801CE0191DFBCCF7F928F929F929E
:101DD000AF92BF92CF92DF92EF92FF920F931F9339
:101DE000CF93DF9300D01F921F92CDB7DEB78C0147
:101DF00085E090E09D838C83F12C90E0580121E1F7
:101E0000A20EB11C89E0782E24E0822E912C0FB610
:101E1000F8940F92D8015A968C915A97882309F416
:101E20003EC081505A968C935A978D919C91892BE4
:101E3000A1F48091820290918302892B39F0E09184
:101E40008202F091830282A18F5F82A3809182023D
:101E500090918302F80195838483D80118968C9120
:101E6000882329F0C8010896F7DA811172DC0F90F7
:101E70000FBEFF24F3948F2D0F900F900F900F90B3
:101E80000F90DF91CF911F910F91FF90EF90DF9016
:101E9000CF90BF90AF909F908F907F9008952C81AE
:101EA0003D81232B21F40F900FBEF12CE4CF911133
:101EB00009C080918703898380918503909186036F
:101EC0009B838A830F900FBE72DA0FB6F8940F923D
:101ED000F801858D8F3F09F4158ED8015E968C919F
:101EE0005E978F3F11F45E961C920F900FBEBE015D
:101EF0006C5F7F4FCE0101961DDA811181C0C80150
:101F00005CDA882309F478C0F80180819181892BFB
:101F100009F050C00FB6F8940F92C480D580C11458
:101F2000D10409F467C0F6018689E0918202F0913C
:101F300083029689891708F051C0D6011C962D910D
:101F40003C911D9737FD0CC0E0918202F091830215
:101F500096899401291B31091D963C932E931C9759
:101F6000879DC001112488579C4FF6012285338537
:101F70002817390759F57601F2E0EF0EF11CC70179
:101F800047DAE0918202F09183028689D601569663
:101F90008C939091AC03981710F48093AC03879DB9
:101FA000C0011124B70188579C4F12DAFF24F39423
:101FB0000F900FBE6C817D81C50180DBC80188DA7E
:101FC0008EDC811101C0C5DB91E021CFE09182025E
:101FD000F09183028689F601868BE8CFE091820238
:101FE000F0918302FF24F394D60191969C91868907
:101FF0009817F0F2F12CDCCFC8016ADA70DCE4CF7C
:10200000C80166DA6CDCC801D8D98823E9F2FF2060
:1020100009F431CF0FB6F8940F92F8018189882323
:1020200009F456C00688F789E02D908184E0891B69
:10203000D80114960D911C910115110509F433CFA7
:10204000F80191A1981708F4982FD80156968C9111
:102050005697981709F427CF92962C919297213092
:1020600009F021CF56969C9356971C962D913C9142
:102070001D9737FD08C024E030E0291B31091D966B
:102080003C932E931C97B9E08B9FC0011124885775
:102090009C4FF801228533852817390709F003CFB3
:1020A0007801F2E0EF0EF11CC701B2D9D8015696C3
:1020B0008C919091AC03981710F48093AC03B9E025
:1020C0008B9FC0011124B70188579C4F81D9EBCE5B
:1020D00080E0AECF0F920FB6F8940F920BB60F922E
:1020E0000CB60F921F9211242F923F924F925F9243
:1020F0006F927F928F929F92AF92BF92CF92DF9218
:10210000EF92FF920F931F932F933F934F935F9301
:102110006F937F938F939F93AF93BF93CF93DF93EF
:10212000EF93FF93A0918202B09183020DB60D92BE
:102130000EB60D9213BE80914E038111F6C08091B0
:10214000850390918603019690938603809385037F
:10215000009799F520915303309154034091510316
:1021600050915203509354034093530330935203BE
:1021700020935103209187032F5F20938703E091E1
:102180005303F09154032081211107C02FEF3FEF3B
:1021900030934B0320934A0310C0E0915303F09116
:1021A00054030580F681E02D0680F781E02D228121
:1021B000338130934B0320934A0320914A0330919B
:1021C0004B038217930710F420E09BC020E019E036
:1021D000E0915303F09154033081311107C08FEF28
:1021E0009FEF90934B0380934A038BC0E09153037E
:1021F000F09154030580F681E02D0680F781E02DF3
:10220000428153818417950728F450934B034093E0
:102210004A0377C0AF014E5F5F4FA285B3856481EB
:102220007581E680F780EB01FD82EC82C681D78163
:102230007B836A8311966D917C911297461757079D
:1022400021F41296DC93CE931197138612863C915B
:1022500031503C933C91A489B5891097F9F066857B
:102260007785E088F188EB01FD82EC82C089D18915
:102270007B836A831196ED90FC901297BF01645F97
:102280007F4FE616F70621F41296DC93CE93119752
:10229000158A148A3C9131503C933C91A689309127
:1022A000AC033A1710F4A093AC031A9FD001112489
:1022B000BD0168577C4F7B01DB011196CD91DC910C
:1022C000D583C4836C817D81778366836C817D81B6
:1022D000DB0113965C934E9312975D834C83F386D8
:1022E000E286E70138813F5F3883A0918202B09196
:1022F0008302468956963C91431708F469CF21E042
:1023000067CFE0918202F0918302E689D9E0ED9FE8
:10231000F0011124E857FC4F8081823008F021E061
:102320008091890281110EC00AC08091870290912C
:102330008802019690938802809387026AC02223C4
:1023400009F467C080914E03882321F081E08093D7
:1023500089025FC010928902A0918202B09183022B
:10236000E0918202F09183022D913C918789908DBA
:1023700082179307A8F08091820290918302809146
:10238000820290918302279A2F9A2FEF67EA71E6D3
:10239000215060407040E1F700C000001F9AF5CF67
:1023A0002091AC0389E001C02150422F50E0849F6E
:1023B000F001859FF00D1124E857FC4F908199237F
:1023C00099F3A181B28112960D90BC91A02DB28398
:1023D000A183289FC001112485579C4FA817B907D6
:1023E00029F412968D919C919283818389E0849F38
:1023F000F001859FF00D1124E857FC4F0180F28118
:10240000E02D8681978190938302809382022093AE
:10241000AC03A0918202B0918302CD91CDBFDD913A
:10242000DEBFFF91EF91DF91CF91BF91AF919F916F
:102430008F917F916F915F914F913F912F911F915C
:102440000F91FF90EF90DF90CF90BF90AF909F9053
:102450008F907F906F905F904F903F902F901F9044
:102460000F900CBE0F900BBE0F900FBE0F900895F3
:10247000CF93DF93009741F0EC010E94D709CE0182
:102480000ED3DF91CF912BCADF91CF910895CF93D7
:10249000DF93EC010E94D709CE0165D2EC011FDA6F
:1024A000209769F4279A2F9A2FEF80E792E0215026
:1024B00080409040E1F700C000001F9AF5CFCE01A8
:1024C000DF91CF9108957F928F929F92AF92BF92AA
:1024D000CF92DF92EF92FF920F931F93CF93DF93F0
:1024E000982EA92E762E872E7A01B22ECA01CFDF22
:1024F0006C01892B09F4C9C088E290E0C8DFEC01C7
:10250000892B09F4C0C0D88ECF8AA70165EA70E094
:10251000C6019BD521E0E21AF108EF89F88DEE0D96
:10252000FF1D672D782DCE0149969B01285F3F4FF7
:10253000DB014D91BD01DC014D93CD01AB0141505B
:102540005109DA014C91442319F06217730781F79E
:1025500018A2BE8AB9A21AA21B861A861D8A1C8AD4
:10256000D987C88784E090E08B1991099D878C8773
:10257000DB8BCA8B1BA21CA21DA21EA21FA29082D3
:10258000DF011197AC9211971C9211971C92119731
:1025900080E88C9311971C9211971C9211971C92B2
:1025A00057971C9211971C92B697F983E8830115EF
:1025B000110519F0F801D183C0830FB6F8940F927A
:1025C000809184038F5F8093840380918202909135
:1025D0008302892B09F068C0D0938302C0938202E2
:1025E00080918403813039F588E893E076D881E9D9
:1025F00093E073D88AE993E070D883EA93E06DD8CA
:1026000089E793E06AD880E793E067D887E693E0AC
:1026100064D88EE593E061D885E593E05ED889E7DC
:1026200093E0909354038093530380E793E0909357
:10263000520380935103809182038F5F80938203C2
:102640008E899091AC03981710F48093AC03F9E055
:102650008F9FC0011124BE016E5F7F4F88579C4F32
:102660000E94E8090F900FBE80918303882349F0F0
:10267000E0918202F091830296898E89981708F47E
:1026800068D881E003C0C601F3DE8FEFDF91CF9100
:102690001F910F91FF90EF90DF90CF90BF90AF9080
:1026A0009F908F907F900895809183038111C3CF75
:1026B000E0918202F09183029E898689981708F43E
:1026C000BACFD0938302C0938202B5CF03DD1895B1
:1026D000789484B5826084BD84B5816084BD85B5FD
:1026E000826085BD85B5816085BD80916E00816009
:1026F00080936E00109281008091810082608093AF
:1027000081008091810081608093810080918000B0
:102710008160809380008091B10084608093B100DB
:102720008091B00081608093B000809191008260C0
:1027300080939100809191008160809391008091BD
:1027400090008160809390008091A10082608093CE
:10275000A1008091A10081608093A1008091A000E0
:1027600081608093A000809121018260809321018B
:1027700080912101816080932101809120018160FD
:102780008093200180917A00846080937A00809108
:102790007A00826080937A0080917A0081608093D1
:1027A0007A0080917A00806880937A001092C1004C
:1027B00020910502309106028FEF91E2821B930B6C
:1027C00090930202809301020E9474080CE413E0CB
:1027D00020E040EC50E064E772E08CE992E073DEC8
:1027E000813009F08EC00FB6F8940F9280914F039C
:1027F00090915003892B41F58FE393E00E946D0B7C
:1028000086E393E00E946D0B8FE393E09093350392
:102810008093340386E393E09093330380933203F1
:1028200081E590E034DEEC01009751F04F969983FA
:1028300088838AE08B8F85E08C8FCE010E947B0B92
:10284000D0935003C0934F030F900FBE80914F035E
:1028500090915003892B09F454C008E413E023E05D
:1028600045E550E069E772E085EF90E02CDE8130CD
:1028700009F047C0F8942FEF3FEF30934B032093BC
:102880004A03809383031092860310928503A895D0
:1028900088E190EC0FB6F894A895809360000FBE85
:1028A00090936000A0918202B0918302CD91CDBF40
:1028B000DD91DEBFFF91EF91DF91CF91BF91AF919D
:1028C0009F918F917F916F915F914F913F912F9148
:1028D0001F910F91FF90EF90DF90CF90BF90AF903E
:1028E0009F908F907F906F905F904F903F902F9030
:1028F0001F900F900CBE0F900BBE0F900FBE0F904D
:1029000008950E9474080E943504FDCFE5E9F2E0C5
:102910001382128288EE93E0A0E0B0E08483958376
:10292000A683B78387E192E09183808385EC90E072
:102930009587848784EC90E09787868780EC90E089
:10294000918B808B81EC90E0938B828B82EC90E07A
:10295000958B848B86EC90E0978B868B118E128EF4
:10296000138E148E08950F931F93CF93DF938230AD
:10297000910510F482E090E0E091AF03F091B00394
:1029800030E020E0B0E0A0E0309799F42115310567
:1029900009F44AC0281B390B24303105D8F58A8147
:1029A0009B816115710589F1FB0193838283FE018F
:1029B00011C0408151810281138148175907E0F00D
:1029C0004817590799F4109761F012960C931297D3
:1029D00013961C933296CF01DF91CF911F910F91E7
:1029E00008950093AF031093B003F4CF2115310580
:1029F00051F04217530738F0A901DB019A01BD01DC
:102A0000DF01F801C1CFEF01F9CF9093B0038093BC
:102A1000AF03CDCFFE01E20FF31F819391932250BC
:102A2000310939832883D7CF2091AD033091AE038C
:102A3000232B41F420910302309104023093AE0322
:102A40002093AD032091010230910202211531053E
:102A500041F42DB73EB74091050250910602241B68
:102A6000350BE091AD03F091AE03E217F307A0F44C
:102A70002E1B3F0B2817390778F0AC014E5F5F4FD4
:102A80002417350748F04E0F5F1F5093AE03409355
:102A9000AD03819391939FCFF0E0E0E09CCFCF9383
:102AA000DF930097E9F0FC01329713821282A09124
:102AB000AF03B091B003ED0130E020E01097A1F436
:102AC00020813181820F931F2091AD033091AE039D
:102AD0002817390709F061C0F093AE03E093AD0306
:102AE000DF91CF910895EA01CE17DF07E8F54A811B
:102AF0005B819E0141155105B1F7E901FB83EA8332
:102B000049915991C40FD51FEC17FD0761F48081DD
:102B100091810296840F951FE901998388838281B0
:102B200093819B838A83F0E0E0E012968D919C91E3
:102B300013970097B9F52D913C911197CD0102960D
:102B4000820F931F2091AD033091AE0328173907F0
:102B500039F6309751F51092B0031092AF03B0934D
:102B6000AE03A093AD03BCCFD383C2834081518118
:102B7000840F951FC817D90761F44E5F5F4F888196
:102B80009981480F591F518340838A819B81938388
:102B900082832115310509F0B0CFF093B003E093A3
:102BA000AF039ECFFD01DC01C0CF13821282D7CFCD
:102BB0005058BB27AA270ED070C161D130F066D122
:102BC00020F031F49F3F11F41EF456C10EF4E0954D
:102BD000E7FB4CC1E92F72D180F3BA176207730784
:102BE0008407950718F071F49EF58AC10EF4E095FC
:102BF0000B2EBA2FA02D0B01B90190010C01CA01B7
:102C0000A0011124FF27591B99F0593F50F4503E61
:102C100068F11A16F040A22F232F342F4427585F53
:102C2000F3CF469537952795A795F0405395C9F76B
:102C30007EF41F16BA0B620B730B840BBAF0915023
:102C4000A1F0FF0FBB1F661F771F881FC2F70EC0C2
:102C5000BA0F621F731F841F48F487957795679595
:102C6000B795F7959E3F08F0B3CF9395880F08F07E
:102C70009927EE0F979587950895D4D008F481E0B1
:102C800008950CD00AC102D140F0F9D030F021F4FF
:102C90005F3F19F0EBC0511134C1EEC00FD198F372
:102CA0009923C9F35523B1F3951B550BBB27AA27CD
:102CB00062177307840738F09F5F5F4F220F331F3F
:102CC000441FAA1FA9F333D00E2E3AF0E0E830D00B
:102CD00091505040E695001CCAF729D0FE2F27D00E
:102CE000660F771F881FBB1F261737074807AB07DC
:102CF000B0E809F0BB0B802DBF01FF2793585F4F51
:102D00002AF09E3F510568F0B1C0FBC05F3FECF375
:102D1000983EDCF3869577956795B795F7959F5F15
:102D2000C9F7880F911D9695879597F90895E1E069
:102D3000660F771F881FBB1F621773078407BA07C8
:102D400020F0621B730B840BBA0BEE1F88F7E09523
:102D50000895BCD088F09F5790F0B92F9927B751AC
:102D6000A0F0D1F0660F771F881F991F1AF0BA954F
:102D7000C9F712C0B13081F0C3D0B1E00895C0C02E
:102D8000672F782F8827B85F39F0B93FCCF3869545
:102D900077956795B395D9F73EF4909580957095A2
:102DA00061957F4F8F4F9F4F0895E89409C097FB1F
:102DB0003EF490958095709561957F4F8F4F9F4F12
:102DC0009923A9F0F92F96E9BB279395F695879556
:102DD00077956795B795F111F8CFFAF4BB0F11F419
:102DE00060FF1BC06F5F7F4F8F4F9F4F16C08823C0
:102DF00011F096E911C0772321F09EE8872F762FF6
:102E000005C0662371F096E8862F70E060E02AF036
:102E10009A95660F771F881FDAF7880F9695879522
:102E200097F90895990F0008550FAA0BE0E8FEEFF7
:102E300016161706E807F907C0F012161306E4077E
:102E4000F50798F0621B730B840B950B39F40A2677
:102E500061F0232B242B252B21F408950A2609F455
:102E6000A140A6958FEF811D811D089597F99F6759
:102E700080E870E060E008959FEF80EC0895002402
:102E80000A941616170618060906089500240A94CF
:102E900012161306140605060895092E0394000C55
:102EA00011F4882352F0BB0F40F4BF2B11F460FFE4
:102EB00004C06F5F7F4F8F4F9F4F089557FD90580D
:102EC000440F551F59F05F3F71F04795880F97FBEE
:102ED000991F61F09F3F79F08795089512161306A8
:102EE0001406551FF2CF4695F1DF08C016161706D7
:102EF0001806991FF1CF869571056105089408950C
:102F0000E894BB2766277727CB0197F908958ADFD6
:102F100008F48FEF08950BD0C0CFB1DF28F0B6DFF3
:102F200018F0952309F0A2CFA7CF1124EACFC6DF6E
:102F3000A0F3959FD1F3950F50E0551F629FF001CC
:102F4000729FBB27F00DB11D639FAA27F00DB11D25
:102F5000AA1F649F6627B00DA11D661F829F2227AE
:102F6000B00DA11D621F739FB00DA11D621F839F35
:102F7000A00D611D221F749F3327A00D611D231F0B
:102F8000849F600D211D822F762F6A2F11249F5759
:102F900050408AF0E1F088234AF0EE0FFF1FBB1F7C
:102FA000661F771F881F91505040A9F79E3F51051B
:102FB00070F05CCFA6CF5F3FECF3983EDCF38695D4
:102FC00077956795B795F795E7959F5FC1F7FE2BC6
:102FD000880F911D9695879597F9089523DF880BA3
:102FE000990B0895A1E21A2EAA1BBB1BFD010DC06F
:102FF000AA1FBB1FEE1FFF1FA217B307E407F507A9
:1030000020F0A21BB30BE40BF50B661F771F881F84
:10301000991F1A9469F760957095809590959B011A
:10302000AC01BD01CF010895EE0FFF1F881F8BBFBC
:103030000790F691E02D1994FB01DC0102C001908C
:103040000D9241505040D8F70895DC0101C06D93B6
:0C30500041505040E0F70895F894FFCF85
:10305C00010000B10380000000000028063503F2D7
:10306C0004F10400000000CA033503620316049344
:10307C0003710385036E616E00696E66006F766680
:10308C00004C554D203D20002A56000D0A006C7551
:10309C006D3D0054454D50524154555245203D20F4
:1030AC00002A430074656D703D00416E616C6F6762
:1030BC00526561645F3000416E616C6F675265618F
:1030CC00645F310049444C4500546D722053766363
:0230DC000000F2
:020000023000CC
:10E000000D9489F10D94B2F10D94B2F10D94B2F129
:10E010000D94B2F10D94B2F10D94B2F10D94B2F1F0
:10E020000D94B2F10D94B2F10D94B2F10D94B2F1E0
:10E030000D94B2F10D94B2F10D94B2F10D94B2F1D0
:10E040000D94B2F10D94B2F10D94B2F10D94B2F1C0
:10E050000D94B2F10D94B2F10D94B2F10D94B2F1B0
:10E060000D94B2F10D94B2F10D94B2F10D94B2F1A0
:10E070000D94B2F10D94B2F10D94B2F10D94B2F190
:10E080000D94B2F10D94B2F10D94B2F10D94B2F180
:10E090000D94B2F10D94B2F10D94B2F10D94B2F170
:10E0A0000D94B2F10D94B2F10D94B2F10D94B2F160
:10E0B0000D94B2F10D94B2F10D94B2F10D94B2F150
:10E0C0000D94B2F10D94B2F10D94B2F10D94B2F140
:10E0D0000D94B2F10D94B2F10D94B2F10D94B2F130
:10E0E0000D94B2F141546D656761323536300041AF
:10E0F000726475696E6F206578706C6F72657220DE
:10E1000073746B3530305632206279204D4C530099
:10E11000426F6F746C6F616465723E004875683F52
:10E1200000436F6D70696C6564206F6E203D200048
:10E130004350552054797065202020203D20005FF9
:10E140005F4156525F415243485F5F3D2000415658
:10E1500052204C696243205665723D20004743437C
:10E160002056657273696F6E203D20004350552024
:10E1700049442020202020203D20004C6F7720663D
:10E18000757365202020203D20004869676820665F
:10E190007573652020203D200045787420667573D6
:10E1A00065202020203D20004C6F636B2066757336
:10E1B000652020203D20004D617220203720323024
:10E1C000313300312E362E3800342E332E350056A2
:10E1D00023202020414444522020206F7020636F70
:10E1E00064652020202020696E73747275637469E1
:10E1F0006F6E2061646472202020496E74657272B3
:10E20000757074006E6F20766563746F7200726A49
:10E210006D702020006A6D70200057686174207056
:10E220006F72743A00506F7274206E6F7420737541
:10E2300070706F72746564004D7573742062652030
:10E2400061206C6574746572002000577269747483
:10E25000696E672045450052656164696E672045B7
:10E26000450045452065727220636E743D00504F35
:10E27000525400303D5A65726F2061646472003FF1
:10E280003D43505520737461747300403D454550C3
:10E29000524F4D207465737400423D426C696E6B41
:10E2A000204C454400453D44756D70204545505215
:10E2B0004F4D00463D44756D7020464C415348001B
:10E2C000483D48656C70004C3D4C69737420492F83
:10E2D0004F20506F72747300513D51756974005234
:10E2E0003D44756D702052414D00563D73686F7707
:10E2F00020696E7465727275707420566563746FF0
:10E30000727300593D506F727420626C696E6B00BD
:10E310002A0011241FBECFEFD1E2DEBFCDBF01E046
:10E320000CBF12E0A0E0B2E0EEE1FDEF03E00BBFB6
:10E3300002C007900D92A030B107D9F712E0A0E01B
:10E34000B2E001C01D92AE30B107E1F70F9460F367
:10E350000D948DFE01E20EBF0FEF0DBF11241FBE05
:10E360000D9460F30D9400F020E030E040ED57E0B4
:10E3700005C0FA013197F1F72F5F3F4F2817390792
:10E38000C0F308959C01260F311DC901A0E0B0E043
:10E390002F5F3F4FABBFFC018791882361F08093D3
:10E3A000C6008091C00086FFFCCF8091C0008064D1
:10E3B0008093C000EACF08958DE08093C6008091DD
:10E3C000C00086FFFCCF8091C00080648093C000B5
:10E3D0008AE08093C6008091C00086FFFCCF8091C8
:10E3E000C00080648093C00008950F94C2F10F9420
:10E3F000DCF10895FC019081992359F09093C600B7
:10E400008091C00086FFFCCF8091C0008064809323
:10E41000C0003196992379F70895282F982F929567
:10E420009F70892F805D8A3308F0895F8093C600D2
:10E430008091C00086FFFCCF8091C00080648093F3
:10E44000C000822F8F70982F905D9A3308F0995FEB
:10E450009093C6008091C00086FFFCCF8091C000E1
:10E4600080648093C00008959C01FB01853691056E
:10E470001CF46330710594F0C90164E670E00F94F8
:10E480002EFE605D7F4F6093C6008091C00086FFC6
:10E49000FCCF8091C00080648093C0002B30310598
:10E4A00014F43297B4F0C90164E670E00F942EFEC4
:10E4B0006AE070E00F942EFE605D7F4F6093C600AF
:10E4C0008091C00086FFFCCF8091C0008064809363
:10E4D000C000C9016AE070E00F942EFEC0968093E0
:10E4E000C6008091C00086FFFCCF8091C000806490
:10E4F0008093C00008951F93182F8EE692EE60E07F
:10E500000F94C2F11093C6008091C00086FFFCCF2B
:10E510008091C00080648093C0000F94DCF11F9153
:10E5200008952F923F924F925F926F927F928F92B7
:10E530009F92AF92BF92CF92DF92EF92FF920F9392
:10E540001F93DF93CF93CDB7DEB762970FB6F894E2
:10E55000DEBF0FBECDBF382E622ECA01DB015C01CB
:10E560006D01772420E2222E2E010894411C511CBB
:10E570008BC081E0A81680E0B80681E0C80680E084
:10E58000D80628F0C601AA27BB270F940DF2BB2797
:10E59000AD2D9C2D8B2D0F940DF28A2D0F940DF225
:10E5A0002092C6008091C00086FFFCCF8091C00001
:10E5B00080648093C0009DE29093C6008091C0006B
:10E5C00086FFFCCF8091C00080648093C0002092C1
:10E5D000C6008091C00086FFFCCF8091C00080649F
:10E5E0008093C00019828601750188249924A1E0D6
:10E5F0003A1651F03A1620F0B2E03B1661F409C029
:10E600000BBFF701779007C0C7010F9477FE782EF4
:10E6100002C0F7017080872D0F940DF22092C60082
:10E620008091C00086FFFCCF8091C0008064809301
:10E63000C000872D8052F401EF70F0708F3520F408
:10E64000E40DF51D708204C0E40DF51D8EE280839B
:10E650000894E11CF11C011D111D0894811C911CE2
:10E6600090E18916910409F0C2CF80E190E0A0E02A
:10E67000B0E0A80EB91ECA1EDB1E198AC2010F9493
:10E68000FAF10F94DCF16A94662009F072CF629679
:10E690000FB6F894DEBF0FBECDBFCF91DF911F91B3
:10E6A0000F91FF90EF90DF90CF90BF90AF909F9031
:10E6B0008F907F906F905F904F903F902F90089534
:10E6C0002F923F924F925F926F927F928F929F9282
:10E6D000AF92BF92CF92DF92EF92FF920F931F9370
:10E6E000DF93CF93CDB7DEB7CD53D1400FB6F894BB
:10E6F000DEBF0FBECDBF01E20EBF0FEF0DBF94B75F
:10E70000F894A89514BE80916000886180936000A1
:10E7100010926000789493FF05C0E0910002F091A0
:10E7200001021995279A2F9A8091C00082608093E8
:10E73000C00080E18093C40088E18093C1000000A4
:10E74000EE24FF24870144E0A42EB12CCC24DD2448
:10E7500024C0C5010197F1F70894E11CF11C011DCB
:10E76000111D21E2E2162EE4F20620E0020720E06D
:10E77000120718F031E0C32ED12CC801B70127ECE5
:10E780003BE140E050E00F9441FE611571058105C9
:10E79000910519F485B1805885B98091C00087FD35
:10E7A00003C0C114D104A9F2A6014F5F5F4FC25E3E
:10E7B000DE4F59834883CE51D140C25EDE4F8881FF
:10E7C0009981CE51D140019711F00D9410FEC05D9A
:10E7D000DE4F19821882C053D14060E0C15DDE4F28
:10E7E0001882CF52D14088249924C35DDE4F19820C
:10E7F0001882CD52D140C05EDE4F188219821A8233
:10E800001B82C052D140CE5CDE4F188219821A8220
:10E810001B82C253D140EE24FF2487010BBFF701B6
:10E8200007911691C45CDE4F19830883CC53D14005
:10E830000D940BFEC25EDE4F28813981CE51D1404E
:10E840002130310509F52091C600C25EDE4F1982E4
:10E850001882CE51D14022C02F5F3F4F4F4F5F4FA4
:10E86000213082E138078AE7480780E0580780F0C6
:10E87000C45CDE4FE881F981CC53D140EF5FFF4F9C
:10E8800019F0EE27FF27099420E030E040E050E047
:10E890008091C00087FFE0CF2091C600C35DDE4FAE
:10E8A00048815981CD52D1404F5F5F4FC35DDE4FEC
:10E8B00059834883CD52D140213209F063C64A3092
:10E8C000510508F05FC60894811C911C53E0851621
:10E8D000910409F059C600E010E018C081E280936D
:10E8E000C6008091C00086FFFCCF8091C00080648C
:10E8F0008093C0002F5F3F4F2931310579F70F9486
:10E90000DCF10F5F1F4F0530110519F020E030E0FA
:10E91000E5CF10920A0210920B0210920C02109294
:10E920000D02109206021092070210920802109235
:10E930000902109202021092030210920402109235
:10E9400005028FEE90EE60E00F94F5F180E191EE1C
:10E9500060E00F94C2F18091C00087FFFCCF9091DE
:10E96000C600903608F09F759032B8F09093C600BC
:10E970008091C00086FFFCCF8091C00080648093AE
:10E98000C000A0E2A093C6008091C00086FFFCCF2B
:10E990008091C00080648093C000983409F4D7C18E
:10E9A0009934B8F4923409F459C1933458F490333B
:10E9B00019F1903308F4E3C59F33A1F1903409F0C5
:10E9C000DEC5BDC0953409F470C1963409F0D7C5D1
:10E9D00098C1923509F42BC2933538F49C3409F46C
:10E9E000F5C1913509F0CBC518C2963509F445C279
:10E9F000993509F0C4C567C483E792EE62E00F94CD
:10EA0000F5F110920602109207021092080210927D
:10EA1000090210920A0210920B0210920C0210923C
:10EA20000D0213C18FE792EE62E00F94F5F18FEEC5
:10EA300090EE60E00F94F5F181E291EE60E00F94CA
:10EA4000C2F187EB91EE60E00F94F5F180E391EE77
:10EA500060E00F94C2F184EE90EE60E00F94F5F167
:10EA60008FE391EE60E00F94C2F186E090E061E008
:10EA700070E00F9434F20F94DCF18DE591EE60E0DC
:10EA80000F94C2F189EC91EE60E00F94F5F18EE401
:10EA900091EE60E00F94C2F183EC91EE60E00F9490
:10EAA000F5F18CE691EE60E00F94C2F18EE10F94E7
:10EAB0000DF288E90F940DF281E00F940DF20F949E
:10EAC000DCF18BE791EE60E00F94C2F119E0E0E039
:10EAD000F0E010935700E4918E2F0F940DF20F94F5
:10EAE000DCF18AE891EE60E00F94C2F1E3E0F0E03F
:10EAF00010935700E4918E2F0F940DF20F94DCF1D8
:10EB000089E991EE60E00F94C2F1E2E0F0E0109349
:10EB10005700E4918E2F0F940DF20F94DCF188EAE8
:10EB200091EE60E00F94C2F1E1E0F0E01093570045
:10EB30001491812F0F940DF20F94DCF107CF8BE825
:10EB400092EE62E00F94F5F18BE492EE60E00F94A8
:10EB5000F5F10F94DCF100E010E019C0C8016F2D51
:10EB60000F947FFEFF2031F489E492EE60E00F9471
:10EB7000C2F10BC0F092C6008091C00086FFFCCFAE
:10EB80008091C00080648093C0000F5F1F4FC80158
:10EB900081519F41A0E0B0E0ABBFFC01F790BAE229
:10EBA000FB1621F0E2E000301E07C1F60F94DCF105
:10EBB0000F94DCF187E592EE60E00F94F5F10F948D
:10EBC000DCF1CC24DD2400E010E01EC0C8010F946D
:10EBD00077FEF82E882331F489E492EE60E00F94FA
:10EBE000C2F10BC08093C6008091C00086FFFCCFAD
:10EBF0008091C00080648093C000FE1419F00894D6
:10EC0000C11CD11C0F5F1F4FC80181519F41A0E063
:10EC1000B0E0ABBFFC01E790FAE2EF1621F022E092
:10EC20000030120799F60F94DCF10F94DCF182E6C4
:10EC300092EE60E00F94C2F1C60161E070E00F94C3
:10EC400034F20F94DCF10F94DCF110920202109276
:10EC50000302109204021092050278CE89E992EE26
:10EC600062E00F94F5F1279A2F9A16C02F9880E052
:10EC700090E0E0EDF7E03197F1F7019684369105E9
:10EC8000C1F72F9A80E090E0E0EDF7E03197F1F7DF
:10EC9000019684369105C1F78091C00087FFE6CFC9
:10ECA0008091C00087FFFCCF64C485EA92EE62E0E9
:10ECB0000F94F5F140910202509103026091040219
:10ECC0007091050281E020E10F9491F2809102029F
:10ECD00090910302A0910402B091050280509F4FD1
:10ECE000AF4FBF4F8093020290930302A0930402A0
:10ECF000B093050280509041A040B04008F426CE69
:10ED0000A4CF83EB92EE62E00F94F5F140910602FE
:10ED100050910702609108027091090280E020E1A1
:10ED20000F9491F28091060290910702A09108023F
:10ED3000B091090280509F4FAF4FBF4F80930602A2
:10ED400090930702A0930802B0930902FFCD80ECD4
:10ED500092EE62E00F94F5F183E792EE60E00F949B
:10ED6000F5F18FE792EE60E00F94F5F18BE892EE0B
:10ED700060E00F94F5F189E992EE60E00F94F5F10F
:10ED800085EA92EE60E00F94F5F183EB92EE60E09D
:10ED90000F94F5F180EC92EE60E00F94F5F187ECC2
:10EDA00092EE60E00F94F5F188ED92EE60E00F9442
:10EDB000F5F18FED92EE60E00F94F5F18AEE92EEB0
:10EDC00060E00F94F5F183E093EEBDCD87EC92EE19
:10EDD00062E00F94F5F181E40F947BF282E40F94EA
:10EDE0007BF283E40F947BF284E40F947BF285E45E
:10EDF0000F947BF286E40F947BF287E40F947BF20E
:10EE000088E40F947BF28AE40F947BF28BE40F94F6
:10EE10007BF28CE40F947BF299CD88ED92EE62E068
:10EE20000F94F5F1772473948824992409C48FED05
:10EE300092EE62E00F94F5F140910A0250910B02BC
:10EE400060910C0270910D0282E020E10F9491F22A
:10EE500080910A0290910B02A0910C02B0910D02D8
:10EE600080509F4FAF4FBF4F80930A0290930B0289
:10EE7000A0930C02B0930D0269CD8AEE92EE62E08F
:10EE80000F94F5F184EE90EE60E00F94F5F18FECC5
:10EE900091EE60E00F94F5F1662477244301CC5D98
:10EEA000DE4F19821882C452D140D401C301B695F5
:10EEB000A79597958795CA5DDE4F88839983AA8326
:10EEC000BB83C652D140CC5DDE4FA881B981C4520C
:10EED000D1401196CC5DDE4FB983A883C452D14096
:10EEE000CD0162E070E00F9434F2B0E2B093C6005E
:10EEF0008091C00086FFFCCF8091C0008064809329
:10EF0000C000EDE2E093C6008091C00086FFFCCF18
:10EF10008091C00080648093C000F0E2F093C6004E
:10EF20008091C00086FFFCCF8091C00080648093F8
:10EF3000C000CA5DDE4FE880F9800A811B81C6529D
:10EF4000D140BB27A12F902F8F2D0F940DF2CA5DBA
:10EF5000DE4F8881C652D1400F940DF2B0E2FB2EF5
:10EF6000F092C6008091C00086FFFCCF8091C00067
:10EF700080648093C0000DE30093C6008091C000C0
:10EF800086FFFCCF8091C00080648093C00010E2B7
:10EF90001093C6008091C00086FFFCCF8091C00016
:10EFA00080648093C0008BBEF3012791C65DDE4F65
:10EFB0002883CA52D140A22EBB24CC24DD2408943D
:10EFC000611C711C811C911C8BBEF3018791282E42
:10EFD0003324442455240894611C711C811C911C09
:10EFE0008BBEF3013791C55DDE4F3883CB52D140E4
:10EFF0000894611C711C811C911C8BBEF30147910C
:10F00000C45DDE4F4883CC52D140ADEFEA2EAFEF66
:10F01000FA2EAFEF0A2FAFEF1A2F6E0C7F1C801E57
:10F02000911E142D032DF22CEE24EA0CFB1C0C1D5A
:10F030001D1D0F940DF220E22093C6008091C000A8
:10F0400086FFFCCF8091C00080648093C000C65DC5
:10F05000DE4F8881CA52D1400F940DF230E23093D6
:10F06000C6008091C00086FFFCCF8091C000806404
:10F070008093C000C45DDE4F8881CC52D1400F9494
:10F080000DF240E24093C6008091C00086FFFCCFA5
:10F090008091C00080648093C000C55DDE4F888190
:10F0A000CB52D1400F940DF250E25093C6008091A4
:10F0B000C00086FFFCCF8091C00080648093C000B8
:10F0C0008FEFE8168FEFF80680E0080780E018075A
:10F0D00031F484E092EE60E00F94C2F1DFC0D80119
:10F0E000C7018070907CA070B0708050904CA040A0
:10F0F000B040D1F52FEF3FE340E050E0E222F322B1
:10F1000004231523CA5DDE4FA880B980CA80DB8046
:10F11000C652D140AE0CBF1CC01ED11EAA0CBB1CD7
:10F12000CC1CDD1C8EE092EE60E00F94C2F1BB2798
:10F13000A12F902F8F2D0F940DF28E2D0F940DF285
:10F1400030E23093C6008091C00086FFFCCF8091F2
:10F15000C00080648093C0004EE34093C60080915D
:10F16000C00086FFFCCF87C08EE09EEFA0E0B0E03D
:10F17000E822F9220A231B239CE0E91694E9F90608
:10F1800090E0090790E0190709F088C0C45DDE4FE0
:10F19000A881CC52D140EA2EFF2400E010E0102FCD
:10F1A0000F2DFE2CEE24C55DDE4FB881CB52D14031
:10F1B000EB0EF11C011D111DD601C501817090706F
:10F1C000A070B070DC0199278827E80EF91E0A1F8D
:10F1D0001B1F20EF30E040E050E0A222B322C42207
:10F1E000D52241E1AA0CBB1CCC1CDD1C4A95D1F7F1
:10F1F000EA0CFB1C0C1D1D1D81E090E0A0E0B0E0BE
:10F20000282239224A225B2235E1220C331C441C7D
:10F21000551C3A95D1F7E20CF31C041D151D57013E
:10F220006801AA0CBB1CCC1CDD1C85E192EE60E0E1
:10F230000F94C2F1C801AA27BB270F940DF2BB2778
:10F24000A12F902F8F2D0F940DF28E2D0F940DF274
:10F2500090E29093C6008091C00086FFFCCF809121
:10F26000C00080648093C000AEE3A093C60080918C
:10F27000C00086FFFCCF8091C00080648093C000F6
:10F28000C601AA27BB270F940DF2BB27AD2D9C2DDD
:10F290008B2D0F940DF28A2D0F940DF20F94DCF14B
:10F2A000CC5DDE4FE881F981C452D140F99709F471
:10F2B0004DCBF4E0EF2EF12C012D112D6E0C7F1CA7
:10F2C000801E911EF2CD83E093EE62E00F94F5F183
:10F2D0008AE192EE60E00F94C2F18091C00087FF56
:10F2E000FCCF1091C6001F751093C6008091C0001E
:10F2F00086FFFCCF8091C00080648093C0000F9493
:10F30000DCF1812F81548A3108F036C1163409F4BA
:10F3100095C0173490F4133409F44EC0143430F40B
:10F320001134F1F0123409F01DC130C0143409F465
:10F3300059C0153409F016C16BC01A3409F4C4C0A1
:10F340001B3438F4173409F48FC0183409F00AC19B
:10F35000A1C01B3409F4D2C01C3409F003C1E8C0B9
:10F360008FEF81B90DC082B1809582B980E090E0C5
:10F37000E0EDF7E03197F1F70196883C9105C1F790
:10F380008091C00087FFEFCF12B8EFC08FEF84B934
:10F390000DC085B1809585B980E090E0E0EDF7E0A3
:10F3A0003197F1F70196883C9105C1F78091C00033
:10F3B00087FFEFCF15B8D9C08FEF87B90DC088B1DF
:10F3C000809588B980E090E0E0EDF7E03197F1F7C3
:10F3D0000196883C9105C1F78091C00087FFEFCF6F
:10F3E00018B8C3C08FEF8AB90DC08BB180958BB9A7
:10F3F00080E090E0E0EDF7E03197F1F70196883C8E
:10F400009105C1F78091C00087FFEFCF1BB8ADC059
:10F410008FEF8DB90DC08EB180958EB980E090E0F0
:10F42000E0EDF7E03197F1F70196883C9105C1F7DF
:10F430008091C00087FFEFCF1EB897C08FEF80BBD1
:10F440000DC081B3809581BB80E090E0E0EDF7E0F6
:10F450003197F1F70196883C9105C1F78091C00082
:10F4600087FFEFCF11BA81C08FEF83BB0DC084B38C
:10F47000809584BB80E090E0E0EDF7E03197F1F714
:10F480000196883C9105C1F78091C00087FFEFCFBE
:10F4900014BA6BC08FEF809301010FC080910201FD
:10F4A00080958093020180E090E0E0EDF7E03197F5
:10F4B000F1F70196883C9105C1F78091C00087FF64
:10F4C000EDCF1092020151C08FEF809304010FC065
:10F4D0008091050180958093050180E090E0E0ED4A
:10F4E000F7E03197F1F70196883C9105C1F78091DB
:10F4F000C00087FFEDCF1092050137C08FEF8093DA
:10F5000007010FC08091080180958093080180E079
:10F5100090E0E0EDF7E03197F1F70196883C910536
:10F52000C1F78091C00087FFEDCF109208011DC088
:10F530008FEF80930A010FC080910B01809580931B
:10F540000B0180E090E0E0EDF7E03197F1F70196F4
:10F55000883C9105C1F78091C00087FFEDCF1092E4
:10F560000B0103C085E292EEEEC98091C00087FFD7
:10F57000FCCF8091C600EAC988E392EEE4C98CE131
:10F5800091EEE1C988249924933011F1943028F444
:10F59000913089F09230B8F408C0953061F195301F
:10F5A000F0F0963009F048C043C02B3109F042C951
:10F5B00091E06BE13FC96227C15DDE4F2883CF52E6
:10F5C000D14092E037C9B22FA0E0622793E032C960
:10F5D000822F90E0A82BB92B622794E02BC92E3004
:10F5E00009F039C3622795E0C05DDE4F19821882A9
:10F5F000C053D1401FC9E1E0F0E0EC0FFD1FC05D3A
:10F60000DE4F08811981C053D140E00FF11F2083E4
:10F610000F5F1F4FC05DDE4F19830883C053D14079
:10F6200062270A171B0709F005C9D80196E002C92D
:10F63000261709F010C303C0973009F0FBC87724E0
:10F640009981933109F412C19431C8F4963009F4C8
:10F65000D8C0973050F4923009F406C1933009F4C1
:10F660006DC0913009F059C253C0913109F477C08F
:10F67000923108F0BBC0903109F04FC2F5C098310B
:10F6800009F487C0993150F4953109F4EFC09531F0
:10F6900008F4C6C1963109F040C2C2C19A3109F4DA
:10F6A0006CC09A3108F491C09B3109F45BC09D3164
:10F6B00009F033C29D81903359F48F81882311F46E
:10F6C0009EE11CC0813011F091E018C098E916C08D
:10F6D000892F807591F0903539F4E0E0F0E089E011
:10F6E0008093570094910AC0983539F4E3E0F0E034
:10F6F00089E080935700949101C090E01A821B82A8
:10F700008D818C831D829E831F8227E030E009C299
:10F710001A8288E08B8381E48C8386E58D8382E581
:10F720008E8389E48F8383E5888780E589878FE5E9
:10F730008A8782E38B872BE030E0F3C18A818139AD
:10F7400041F0823941F0803911F48FE005C080E04A
:10F7500003C082E001C08AE01A828B8344C0772410
:10F76000739482C08D81882311F48EE12CC0813086
:10F7700011F081E028C088E926C01A82E1E0F0E0BB
:10F7800089E08093570084918B831C8224E030E0D1
:10F79000C8C18B81803589F48C81883039F4E2E0EE
:10F7A000F0E089E08093570084910DC0E0E0F0E044
:10F7B00089E080935700849106C0E3E0F0E089E09F
:10F7C0008093570084911A82DFCF8D81836C99E0FA
:10F7D000E1E0F0E0082E90935700E89507B600FCB2
:10F7E000FDCF1A821B8223E030E09BC180EC8A832C
:10F7F000CE5CDE4F188219821A821B82C253D1401E
:10F800008EC18A8190E0A0E0B0E0582F44273327D2
:10F8100022278B8190E0A0E0B0E0DC0199278827C7
:10F82000282B392B4A2B5B2B8D8190E0A0E0B0E098
:10F83000282B392B4A2B5B2B8C8190E0A0E0B0E089
:10F84000BA2FA92F982F8827282B392B4A2B5B2BCF
:10F85000220F331F441F551FC05EDE4F288339839C
:10F860004A835B83C052D1401A8259C13A81C95C34
:10F87000DE4F3883C753D140CA5CDE4F1882C6536F
:10F88000D1408B81C82EDD24CA5CDE4F488159816E
:10F89000C653D140C42AD52A933109F082C0CE5C28
:10F8A000DE4F88819981AA81BB81C253D1408050AB
:10F8B000904CA340B04030F583E0CE5CDE4FE88052
:10F8C000F9800A811B81C253D140F70100935B008C
:10F8D00080935700E89507B600FCFDCFCE5CDE4F65
:10F8E000088119812A813B81C253D14000501F4FAA
:10F8F0002F4F3F4FCE5CDE4F088319832A833B8313
:10F90000C253D140C05EDE4F488159816A817B81FC
:10F91000C052D140DE011B9631E08C9111962C91A2
:10F9200011971296C75CDE4F2883C953D140C85C3B
:10F93000DE4F1882C853D14090E0C85CDE4FE881AA
:10F94000F981C853D1408E2B9F2B0C01FA01609393
:10F950005B0030935700E89511244E5F5F4F6F4F67
:10F960007F4F0EEFE02E0FEFF02ECE0CDF1CC114F8
:10F97000D10499F685E0C05EDE4F088119812A81A5
:10F980003B81C052D140F80120935B008093570027
:10F99000E89507B600FCFDCF81E180935700E8951C
:10F9A00035C0C05EDE4F88819981AA81BB81C0527B
:10F9B000D140B695A795979587957C018601ABE0D8
:10F9C000AA2EB12CAC0EBD1E0BC0D5016D915D01F0
:10F9D000C7010F947FFE0894E11CF11C01501040F8
:10F9E0000115110591F7A60160E070E0440F551F65
:10F9F000661F771FC05EDE4FE880F9800A811B8199
:10FA0000C052D1404E0D5F1D601F711F1A82C05E33
:10FA1000DE4F488359836A837B83C052D1407FC0C5
:10FA2000FA80C55CDE4FF882CB53D140C65CDE4F16
:10FA30001882CA53D1408B81C82EDD24C65CDE4FAC
:10FA400008811981CA53D140C02AD12A1A828981DA
:10FA5000BE016D5F7F4F843121F59601C05EDE4FA0
:10FA6000E880F9800A811B81C052D1400BBFF701A9
:10FA700087919691DB018C9311969C936E5F7F4FDB
:10FA8000D801C7010296A11DB11DC05EDE4F88835B
:10FA90009983AA83BB83C052D14022503040F1F6F3
:10FAA00036C0C05EDE4F288139814A815B81C052F9
:10FAB000D1400894C108D108760100E010E0089414
:10FAC000C11CD11C0894E11CF11C011D111DE20E8A
:10FAD000F31E041F151F21BDBB27A52F942F832FB5
:10FAE00082BD2F5F3F4F4F4F5F4FF89A80B5DB01CC
:10FAF0008D93BD012E153F054007510761F7C05E8C
:10FB0000DE4F288339834A835B83C052D1409601FC
:10FB10002D5F3F4FFB01108204C080EC8A8322E0FE
:10FB200030E08BE18093C6008091C00086FFFCCF5F
:10FB30008091C00080648093C000C15DDE4FF88179
:10FB4000CF52D140F093C6008091C00086FFFCCF19
:10FB50008091C00080648093C000432F3093C60022
:10FB60008091C00086FFFCCF8091C00080648093AC
:10FB7000C000922F2093C6008091C00086FFFCCF6A
:10FB80008091C00080648093C0008EE08093C600A6
:10FB90008091C00086FFFCCF8091C000806480937C
:10FBA000C00065E1C15DDE4FE880CF52D1406E25D7
:10FBB00069276427FE01319610C090819093C6009A
:10FBC0008091C00086FFFCCF31968091C000806498
:10FBD0008093C0006927215030402115310569F715
:10FBE0006093C6008091C00086FFFCCF8091C0006A
:10FBF00080648093C00085B1805885B9772081F4F6
:10FC0000C15DDE4F0881CF52D1400F5FC15DDE4F35
:10FC10000883CF52D14090E0A0E0B0E00D941AF4F8
:10FC200027982F9880E090E020ED37E0F901319798
:10FC3000F1F7019684369105C9F700008091C00064
:10FC40008D7F8093C00081E180935700E895EE2777
:10FC5000FF270994FFCF90E00D941AF497FB092E2B
:10FC600007260AD077FD04D02ED006D000201AF443
:10FC7000709561957F4F0895F6F7909581959F4F08
:10FC80000895A1E21A2EAA1BBB1BFD010DC0AA1FDD
:10FC9000BB1FEE1FFF1FA217B307E407F50720F0F5
:10FCA000A21BB30BE40BF50B661F771F881F991F70
:10FCB0001A9469F760957095809590959B01AC01B9
:10FCC000BD01CF010895AA1BBB1B51E107C0AA1FAC
:10FCD000BB1FA617B70710F0A61BB70B881F991FED
:10FCE0005A95A9F780959095BC01CD010895F99991
:10FCF000FECF92BD81BDF89A992780B50895262F31
:10FD0000F999FECF1FBA92BD81BD20BD0FB6F89400
:0EFD1000FA9AF99A0FBE01960895F894FFCF63
:040000033000E000E9
:00000001FF
